{
  "_format": "hh-sol-artifact-1",
  "contractName": "Election",
  "sourceName": "contracts/Election.sol",
  "abi": [
    {
      "anonymous": false,
      "inputs": [
        {
          "indexed": false,
          "internalType": "uint256",
          "name": "indexed_candidateId",
          "type": "uint256"
        }
      ],
      "name": "addCandidateEvent",
      "type": "event"
    },
    {
      "anonymous": false,
      "inputs": [
        {
          "indexed": false,
          "internalType": "uint256",
          "name": "indexed_candidateId",
          "type": "uint256"
        }
      ],
      "name": "votedEvent",
      "type": "event"
    },
    {
      "inputs": [
        {
          "internalType": "string",
          "name": "_name",
          "type": "string"
        },
        {
          "internalType": "string",
          "name": "_party",
          "type": "string"
        }
      ],
      "name": "addCandidate",
      "outputs": [],
      "stateMutability": "nonpayable",
      "type": "function"
    },
    {
      "inputs": [
        {
          "internalType": "uint256",
          "name": "",
          "type": "uint256"
        }
      ],
      "name": "candidates",
      "outputs": [
        {
          "internalType": "uint256",
          "name": "id",
          "type": "uint256"
        },
        {
          "internalType": "string",
          "name": "name",
          "type": "string"
        },
        {
          "internalType": "uint256",
          "name": "voteCount",
          "type": "uint256"
        },
        {
          "internalType": "string",
          "name": "party",
          "type": "string"
        }
      ],
      "stateMutability": "view",
      "type": "function"
    },
    {
      "inputs": [],
      "name": "candidatesCount",
      "outputs": [
        {
          "internalType": "uint256",
          "name": "",
          "type": "uint256"
        }
      ],
      "stateMutability": "view",
      "type": "function"
    },
    {
      "inputs": [
        {
          "internalType": "uint256",
          "name": "_candidateId",
          "type": "uint256"
        }
      ],
      "name": "getCandidate",
      "outputs": [
        {
          "components": [
            {
              "internalType": "uint256",
              "name": "id",
              "type": "uint256"
            },
            {
              "internalType": "string",
              "name": "name",
              "type": "string"
            },
            {
              "internalType": "uint256",
              "name": "voteCount",
              "type": "uint256"
            },
            {
              "internalType": "string",
              "name": "party",
              "type": "string"
            }
          ],
          "internalType": "struct Election.Candidate",
          "name": "",
          "type": "tuple"
        }
      ],
      "stateMutability": "view",
      "type": "function"
    },
    {
      "inputs": [],
      "name": "getCandidateTotal",
      "outputs": [
        {
          "internalType": "uint256",
          "name": "",
          "type": "uint256"
        }
      ],
      "stateMutability": "view",
      "type": "function"
    },
    {
      "inputs": [
        {
          "internalType": "uint256",
          "name": "_candidateId",
          "type": "uint256"
        }
      ],
      "name": "vote",
      "outputs": [],
      "stateMutability": "nonpayable",
      "type": "function"
    },
    {
      "inputs": [],
      "name": "voteTotal",
      "outputs": [
        {
          "internalType": "uint256",
          "name": "",
          "type": "uint256"
        }
      ],
      "stateMutability": "view",
      "type": "function"
    },
    {
      "inputs": [
        {
          "internalType": "address",
          "name": "",
          "type": "address"
        }
      ],
      "name": "voters",
      "outputs": [
        {
          "internalType": "bool",
          "name": "",
          "type": "bool"
        }
      ],
      "stateMutability": "view",
      "type": "function"
    }
  ],
  "bytecode": "0x608060405234801561001057600080fd5b50611078806100206000396000f3fe608060405234801561001057600080fd5b50600436106100885760003560e01c80633477ee2e1161005b5780633477ee2e1461010157806335b8e820146101345780633e808c9014610164578063a3ec138d1461018257610088565b80630121b93f1461008d57806313ac9236146100a957806326541b56146100c75780632d35a8a2146100e3575b600080fd5b6100a760048036038101906100a29190610998565b6101b2565b005b6100b16103a9565b6040516100be9190610c13565b60405180910390f35b6100e160048036038101906100dc919061092c565b6103b3565b005b6100eb6104d6565b6040516100f89190610c13565b60405180910390f35b61011b60048036038101906101169190610998565b6104dc565b60405161012b9493929190610c2e565b60405180910390f35b61014e60048036038101906101499190610998565b61061c565b60405161015b9190610bf1565b60405180910390f35b61016c610780565b6040516101799190610c13565b60405180910390f35b61019c60048036038101906101979190610903565b610786565b6040516101a99190610b56565b60405180910390f35b600160003373ffffffffffffffffffffffffffffffffffffffff1673ffffffffffffffffffffffffffffffffffffffff16815260200190815260200160002060009054906101000a900460ff161561023f576040517f08c379a000000000000000000000000000000000000000000000000000000000815260040161023690610b71565b60405180910390fd5b60008111801561025157506002548111155b610290576040517f08c379a000000000000000000000000000000000000000000000000000000000815260040161028790610bb1565b60405180910390fd5b6002805410156102d5576040517f08c379a00000000000000000000000000000000000000000000000000000000081526004016102cc90610bd1565b60405180910390fd5b60018060003373ffffffffffffffffffffffffffffffffffffffff1673ffffffffffffffffffffffffffffffffffffffff16815260200190815260200160002060006101000a81548160ff021916908315150217905550600080828152602001908152602001600020600201600081548092919061035290610df1565b91905055506003600081548092919061036a90610df1565b91905055507ffff3c900d938d21d0990d786e819f29b8d05c1ef587b462b939609625b684b168160405161039e9190610c13565b60405180910390a150565b6000600254905090565b6000600354146103f8576040517f08c379a00000000000000000000000000000000000000000000000000000000081526004016103ef90610b91565b60405180910390fd5b6002600081548092919061040b90610df1565b9190505550604051806080016040528060025481526020018381526020016000815260200182815250600080600254815260200190815260200160002060008201518160000155602082015181600101908051906020019061046e9291906107a6565b506040820151816002015560608201518160030190805190602001906104959291906107a6565b509050507f256327ff1553bea8de188ecb0e6c936206cd7bd2f2a6ee189faed299944a03c56002546040516104ca9190610c13565b60405180910390a15050565b60025481565b600060205280600052604060002060009150905080600001549080600101805461050590610d8e565b80601f016020809104026020016040519081016040528092919081815260200182805461053190610d8e565b801561057e5780601f106105535761010080835404028352916020019161057e565b820191906000526020600020905b81548152906001019060200180831161056157829003601f168201915b50505050509080600201549080600301805461059990610d8e565b80601f01602080910402602001604051908101604052809291908181526020018280546105c590610d8e565b80156106125780601f106105e757610100808354040283529160200191610612565b820191906000526020600020905b8154815290600101906020018083116105f557829003601f168201915b5050505050905084565b61062461082c565b6000808381526020019081526020016000206040518060800160405290816000820154815260200160018201805461065b90610d8e565b80601f016020809104026020016040519081016040528092919081815260200182805461068790610d8e565b80156106d45780601f106106a9576101008083540402835291602001916106d4565b820191906000526020600020905b8154815290600101906020018083116106b757829003601f168201915b50505050508152602001600282015481526020016003820180546106f790610d8e565b80601f016020809104026020016040519081016040528092919081815260200182805461072390610d8e565b80156107705780601f1061074557610100808354040283529160200191610770565b820191906000526020600020905b81548152906001019060200180831161075357829003601f168201915b5050505050815250509050919050565b60035481565b60016020528060005260406000206000915054906101000a900460ff1681565b8280546107b290610d8e565b90600052602060002090601f0160209004810192826107d4576000855561081b565b82601f106107ed57805160ff191683800117855561081b565b8280016001018555821561081b579182015b8281111561081a5782518255916020019190600101906107ff565b5b5090506108289190610854565b5090565b6040518060800160405280600081526020016060815260200160008152602001606081525090565b5b8082111561086d576000816000905550600101610855565b5090565b600061088461087f84610ca6565b610c81565b90508281526020810184848401111561089c57600080fd5b6108a7848285610d4c565b509392505050565b6000813590506108be81611014565b92915050565b600082601f8301126108d557600080fd5b81356108e5848260208601610871565b91505092915050565b6000813590506108fd8161102b565b92915050565b60006020828403121561091557600080fd5b6000610923848285016108af565b91505092915050565b6000806040838503121561093f57600080fd5b600083013567ffffffffffffffff81111561095957600080fd5b610965858286016108c4565b925050602083013567ffffffffffffffff81111561098257600080fd5b61098e858286016108c4565b9150509250929050565b6000602082840312156109aa57600080fd5b60006109b8848285016108ee565b91505092915050565b6109ca81610d16565b82525050565b60006109db82610cd7565b6109e58185610ce2565b93506109f5818560208601610d5b565b6109fe81610ec7565b840191505092915050565b6000610a1482610cd7565b610a1e8185610cf3565b9350610a2e818560208601610d5b565b610a3781610ec7565b840191505092915050565b6000610a4f602383610cf3565b9150610a5a82610ed8565b604082019050919050565b6000610a72603183610cf3565b9150610a7d82610f27565b604082019050919050565b6000610a95602a83610cf3565b9150610aa082610f76565b604082019050919050565b6000610ab8603683610cf3565b9150610ac382610fc5565b604082019050919050565b6000608083016000830151610ae66000860182610b38565b5060208301518482036020860152610afe82826109d0565b9150506040830151610b136040860182610b38565b5060608301518482036060860152610b2b82826109d0565b9150508091505092915050565b610b4181610d42565b82525050565b610b5081610d42565b82525050565b6000602082019050610b6b60008301846109c1565b92915050565b60006020820190508181036000830152610b8a81610a42565b9050919050565b60006020820190508181036000830152610baa81610a65565b9050919050565b60006020820190508181036000830152610bca81610a88565b9050919050565b60006020820190508181036000830152610bea81610aab565b9050919050565b60006020820190508181036000830152610c0b8184610ace565b905092915050565b6000602082019050610c286000830184610b47565b92915050565b6000608082019050610c436000830187610b47565b8181036020830152610c558186610a09565b9050610c646040830185610b47565b8181036060830152610c768184610a09565b905095945050505050565b6000610c8b610c9c565b9050610c978282610dc0565b919050565b6000604051905090565b600067ffffffffffffffff821115610cc157610cc0610e98565b5b610cca82610ec7565b9050602081019050919050565b600081519050919050565b600082825260208201905092915050565b600082825260208201905092915050565b6000610d0f82610d22565b9050919050565b60008115159050919050565b600073ffffffffffffffffffffffffffffffffffffffff82169050919050565b6000819050919050565b82818337600083830152505050565b60005b83811015610d79578082015181840152602081019050610d5e565b83811115610d88576000848401525b50505050565b60006002820490506001821680610da657607f821691505b60208210811415610dba57610db9610e69565b5b50919050565b610dc982610ec7565b810181811067ffffffffffffffff82111715610de857610de7610e98565b5b80604052505050565b6000610dfc82610d42565b91507fffffffffffffffffffffffffffffffffffffffffffffffffffffffffffffffff821415610e2f57610e2e610e3a565b5b600182019050919050565b7f4e487b7100000000000000000000000000000000000000000000000000000000600052601160045260246000fd5b7f4e487b7100000000000000000000000000000000000000000000000000000000600052602260045260246000fd5b7f4e487b7100000000000000000000000000000000000000000000000000000000600052604160045260246000fd5b6000601f19601f8301169050919050565b7f566f746520616c726561647920636173742066726f6d2074686973206164647260008201527f6573730000000000000000000000000000000000000000000000000000000000602082015250565b7f43616e6e6f74207375626d69742063616e64696461746520616674657220666960008201527f72737420766f7465207265636f72646564000000000000000000000000000000602082015250565b7f43616e646964617465204944206973206e6f7420696e2072616e6765206f662060008201527f63616e6469646174657300000000000000000000000000000000000000000000602082015250565b7f4d757374206265206174206c6561737420322063616e6469646174657320626560008201527f666f726520766f7465732063616e206265206361737400000000000000000000602082015250565b61101d81610d04565b811461102857600080fd5b50565b61103481610d42565b811461103f57600080fd5b5056fea26469706673582212204228c5888f945aafcd0f3b8bcb6dd27c5b2d6b017acbe33c5eb154e37659c66a64736f6c63430008040033",
  "linkReferences": {},
  "deployedLinkReferences": {}
}